:1000000012C02CC02BC02AC029C028C027C026C0BF
:1000100025C024C023C022C021C020C01FC01EC0D4
:100020001DC01CC01BC011241FBECFE5D4E0DEBF25
:10003000CDBF10E0A0E6B0E0E6E8F8E002C0059031
:100040000D92AC3DB107D9F720E0ACEDB0E001C0B6
:100050001D92AC3DB207E1F786D013C4D1CF10BCDE
:1000600083E389B98AB188618AB980B5866A80BD1F
:10007000899A8898909A08955D9BFECF8CB90895CF
:10008000CF93DF93EC018881882329F02196F4DF58
:1000900089918111FCCFDF91CF91089514BE0FB6E5
:1000A000F894A89581B5886181BD11BC0FBE0895F3
:1000B000929A939A0895379A87B18F7387B987B1C7
:1000C00087B986B1866086B90895CF93DF93EC0136
:1000D0008881882379F0188280E690E0D1DF949AB5
:1000E0002FEF83EC99E0215080409040E1F700C071
:1000F000000094988981882379F0198280E790E044
:10010000BFDF959A2FEF83EC99E02150804090401B
:10011000E1F700C0000095988A81882379F01A825F
:1001200080E890E0ADDF969A2FEF83EC99E02150C4
:1001300080409040E1F700C0000096988B818823B2
:1001400079F01B8280E990E09BDF979A2FEF83EC98
:1001500099E0215080409040E1F700C0000097985E
:10016000DF91CF910895CF93DF93CDB7DEB7C05124
:10017000D1400FB6F894DEBF0FBECDBF8FDF8C9A93
:100180008D9A8E9A8F9A949895989698979890DFD2
:1001900092DF65DF80EA90E073DF1D861E861F8692
:1001A000188A369A10E000E00F2EFBEA6F2EF02D31
:1001B0000F2EF9E27F2EF02D0F2EF4E68F2EF02D6C
:1001C000992493947E0141E1E40EF11CA12CBB24FF
:1001D000B3940F2EF7EBCF2EF0E0DF2EF02D8FE94A
:1001E0009FE00197F1F700C00000369921C084B16B
:1001F00025B1E02FF0E0EE0FFF1F41E050E04C0F83
:100200005D1FE40FF51F90E0922B9183808391E0B6
:10021000900F969D012D112406950695802F880F2D
:10022000080F000F901B092F80EC890F87B9369AB1
:1002300081E0810F879D112D112412951F70189D4B
:1002400080191124182F011117C089819A81C29732
:1002500008F49D868B819C81C29708F49E868D81CF
:100260009E81C29708F49F868F819885C29708F473
:10027000988ACE010D9629DF1111B1CFF701A501A2
:10028000119241505040E1F78C858F938B858F936D
:100290008A858F9389858F9388858F938F818F939C
:1002A0008E818F938D818F938C818F938B818F9390
:1002B0008A818F9389818F93DF92CF92FF92EF9201
:1002C00008D0C701DDDE0FB6F894DEBF0FBECDBF8C
:1002D00086CFAEE0B0E0EEE6F1E0AAC20D891E895D
:1002E00086E08C831A8309838FEF9FE79E838D833B
:1002F000AE01475E5F4F6F89788DCE01019608D0C1
:10030000EF81F885E00FF11F10822E96E4E0ACC279
:10031000ABE0B0E0EDE8F1E07DC26C017B018A0169
:10032000FC0117821682838181FFBFC1CE01019635
:100330003C01F6019381F70193FD859193FF819133
:100340007F01882309F4ADC1853239F493FD85918D
:1003500093FF81917F01853221F4B60190E0C0D1F5
:10036000E8CF912C212C312CFFE1F315D8F08B3202
:1003700079F038F4803279F08332A1F4232D2061B2
:100380001DC08D3261F0803369F4232D216016C0C9
:10039000832D8260382EE32DE4603E2E2AC0F32D9B
:1003A000F8601DC037FC2DC020ED280F2A3040F02A
:1003B0008E32B9F436FC75C1232D2064322E19C05B
:1003C00036FE06C08AE0989E200D1124922E11C0A0
:1003D000EAE02E9E200D1124222EF32DF0623F2EF6
:1003E00008C08C3621F4832D8068382E02C08836F0
:1003F00041F4F70193FD859193FF81917F01811174
:10040000B3CF982F9F7D9554933028F40C5F1F4FE6
:100410009FE399830DC0833631F0833771F08335C4
:1004200009F055C020C0F801808189830E5F1F4FFD
:1004300088248394912C530112C02801F2E04F0EBE
:10044000511CF801A080B18036FE03C0692D70E018
:1004500002C06FEF7FEFC50138D14C018201F32D4F
:10046000FF773F2E15C0280122E0420E511CF801F3
:10047000A080B18036FE03C0692D70E002C06FEF2E
:100480007FEFC50117D14C01F32DF0683F2E82019B
:1004900033FC19C0822D90E088169906A0F4B601AD
:1004A00080E290E01DD12A94F5CFF50137FC8591CB
:1004B00037FE81915F01B60190E012D121102A949C
:1004C00021E0821A91088114910479F7E1C0843601
:1004D00011F0893639F5F80137FE07C06081718166
:1004E000828193810C5F1F4F08C060817181072E4C
:1004F000000C880B990B0E5F1F4FF32DFF763F2EDC
:1005000097FF09C090958095709561957F4F8F4FAB
:100510009F4FF0683F2E2AE030E0A3011DD1882EC6
:10052000861844C0853731F4232D2F7EB22E2AE061
:1005300030E025C0932D997FB92E8F36C1F018F485
:10054000883579F0AEC0803719F0883721F0A9C01E
:10055000E92FE061BE2EB4FE0DC0FB2DF460BF2E6E
:1005600009C034FE0AC0292F2660B22E06C028E03A
:1005700030E005C020E130E002C020E132E0F801C7
:10058000B7FE07C060817181828193810C5F1F4F2C
:1005900006C06081718180E090E00E5F1F4FA30173
:1005A000DBD0882E8618FB2DFF773F2E36FE0DC040
:1005B000232D2E7FA22E891458F434FE0BC032FC5A
:1005C00009C0832D8E7EA82E05C0B82CA32C03C095
:1005D000B82C01C0B92CA4FE0FC0FE01E80DF11D1E
:1005E0008081803321F49A2D997EA92E09C0A2FE24
:1005F00006C0B394B39404C08A2D867809F0B394EE
:10060000A3FC10C0A0FE06C0B21480F4280C922CEB
:100610009B180DC0B21458F4B60180E290E060D08F
:10062000B394F8CFB21418F42B1802C0982C212CD4
:10063000A4FE0FC0B60180E390E052D0A2FE16C027
:10064000A1FC03C088E790E002C088E590E0B60115
:100650000CC08A2D867851F0A1FE02C08BE201C049
:1006600080E2A7FC8DE2B60190E03AD0891430F424
:10067000B60180E390E034D09A94F8CF8A94F301E5
:10068000E80DF11D8081B60190E02AD08110F6CFEF
:10069000222009F44ECEB60180E290E021D02A94C7
:1006A000F7CFF6018681978102C08FEF9FEF2B96DF
:1006B000E2E1CCC0FC010590615070400110D8F718
:1006C000809590958E0F9F1F0895FC01615070409A
:1006D00001900110D8F7809590958E0F9F1F089577
:1006E0000F931F93CF93DF93FB01238121FD03C061
:1006F0008FEF9FEF2CC022FF16C0468157812481C7
:1007000035814217530744F4A081B1819D012F5FC9
:100710003F4F318320838C93268137812F5F3F4F5A
:100720003783268314C08B01EC01FB010084F18523
:10073000E02D0995892BE1F6D80116968D919C91B3
:100740001797019617969C938E931697CE01DF917B
:10075000CF911F910F910895FA01AA27283051F1E6
:10076000203181F1E8946F936E7F6E5F7F4F8F4FE2
:100770009F4FAF4FB1E03ED0B4E03CD0670F781F41
:10078000891F9A1FA11D680F791F8A1F911DA11D26
:100790006A0F711D811D911DA11D20D009F468945F
:1007A0003F912AE0269F11243019305D3193DEF607
:1007B000CF010895462F4770405D4193B3E00FD0BD
:1007C000C9F7F6CF462F4F70405D4A3318F0495DA8
:1007D00031FD4052419302D0A9F7EACFB4E0A6958B
:1007E0009795879577956795BA95C9F700976105AD
:1007F000710508959B01AC010A2E06945795479503
:1008000037952795BA95C9F7620F731F841F951FF7
:10081000A01D08952F923F924F925F926F927F9208
:100820008F929F92AF92BF92CF92DF92EF92FF9200
:100830000F931F93CF93DF93CDB7DEB7CA1BDB0BAC
:100840000FB6F894DEBF0FBECDBF09942A88398851
:1008500048885F846E847D848C849B84AA84B98458
:10086000C884DF80EE80FD800C811B81AA81B98164
:10087000CE0FD11D0FB6F894DEBF0FBECDBFED0178
:060880000895F894FFCF7B
:10088600627574746F6E3120746F7563680D0A003B
:10089600627574746F6E3220746F7563680D0A002A
:1008A600627574746F6E3320746F7563680D0A0019
:1008B600627574746F6E3420746F7563680D0A0008
:1008C6004C616D70206D6F6420496E697469616C4E
:1008D600697A65640D0A00303A25642C09313A2597
:1008E600642C09323A25642C09333A25642C0934E0
:0C08F6003A25642C09353A25640D0A00EF
:00000001FF
